:100000000C9468000C9490000C9490000C94900058
:100010000C9490000C9490000C9490000C94900020
:100020000C9490000C9490000C9490000C94900010
:100030000C9490000C9490000C9490000C94900000
:100040000C943C0C0C9490000C949F0B0C94790B2A
:100050000C9490000C9490000C9490000C949000E0
:100060000C9478040C9490006C108510A510C510A9
:10007000E5100511251144113E0B430B480B4D0BA8
:10008000520B570B5C0B610B000000002500280091
:100090002B00040404040404040402020202020209
:1000A000030303030303010204081020408001023C
:1000B00004081020010204081020000000080002BB
:1000C00001000003040700000000000000006112AE
:1000D00011241FBECFEFD8E0DEBFCDBF11E0A0E0FE
:1000E000B1E0E4ECF6E202C005900D92AE39B10742
:1000F000D9F725E0AEE9B1E001C01D92AB33B207FC
:10010000E1F710E0C8E6D0E004C02197FE010E94AC
:10011000EE12C736D107C9F70E94FA0D0C9460138E
:100120000C94000080E991E00895539A0895CF93CC
:10013000DF9300D000D000D0CDB7DEB7AB011C827A
:100140001D821E82DC01ED91FC910190F081E02D79
:1001500019821A821B829E012F5F3F4FBE016C5F86
:100160007F4F099526960FB6F894DEBF0FBECDBF20
:10017000DF91CF910895FC0185859685089580E0F3
:1001800090E0089585ED8093BC008091BC0084FDD3
:10019000FCCF10922B0208954091E001262F30E011
:1001A000240F311D21323105DCF420912B02243043
:1001B000C9F4FC0180E090E0861758F43091E0012A
:1001C0002191DC01A054BE4FA30FB11D2C930196C9
:1001D000F3CF8091E001680F6093E00180E0089523
:1001E00081E0089582E00895E091BE01F091BF01A1
:1001F000309729F010922D0210922C020994089544
:10020000CF93DF93AC01E0913402F0913502309747
:10021000F1F090912F0280912E029817C0F090E09B
:10022000292F30E02617370754F4D901A256BE4FC4
:10023000EA01C20FD31F88818C939F5FF1CF109288
:100240002F0260932E02CB01DF91CF910994DF91B1
:10025000CF9108950895E0912F0280912E02E81722
:1002600030F4F0E0E256FE4F808190E008958FEF89
:100270009FEF089590912F0280912E02981750F4CD
:10028000E92FF0E0E256FE4F208130E09F5F90932F
:100290002F0202C02FEF3FEFC901089580912E0277
:1002A00090E020912F02821B91090895CF93DF9354
:1002B00000D0CDB7DEB7CB01642F49835A830E94AB
:1002C000CC004981842F5A81952F0F900F90DF9198
:1002D000CF910895CF93DF931F92CDB7DEB7698397
:1002E00061E0CE0101960E94CC0081E090E00F9089
:1002F000DF91CF9108954F925F926F927F928F928C
:10030000AF92CF92DF92EF92FF920F931F93CF9312
:10031000DF933C01EB010F960E94D30CF894E88127
:10032000F9815BB158608BB1877F8BB9DA849F818B
:100330002D2D291B922F2F836F854A805B807D8511
:10034000FC84EE847F5FF394E3943E814885C98406
:10035000AB841181D20120E0C32F022F322F3181D3
:10036000112788943111390F08F43FEF9195889443
:1003700070FD130F1795889471FD130F17958894CE
:1003800072FD130F1795889473FD130F17958894BA
:1003900074FD130F1795889475FD130F17958894A6
:1003A00076FD130F1795889477FD130F1795889492
:1003B000232F7111212F9D0D122F002C5BB900C02E
:1003C00017FF8BB930812227889400C000C0002C11
:1003D0008BB931113C0F00C0002C5BB900C016FF77
:1003E0008BB908F43FEFC195889400C000C0002C81
:1003F0008BB9F0FC230F00C0002C5BB900C015FFC7
:100400008BB927958894F1FC230F00C000C0002C05
:100410008BB92795889400C0002C5BB900C014FFED
:100420008BB9F2FC230F2795889400C000C0002CE4
:100430008BB9F3FC230F00C0002C5BB900C013FF85
:100440008BB927958894F4FC230F00C000C0002CC2
:100450008BB92795889400C0002C5BB900C012FFAF
:100460008BB9F5FC230F2795889400C000C0002CA1
:100470008BB9F6FC230F00C0002C5BB900C011FF44
:100480008BB927958894F7FC230F00C000C0002C7F
:100490008BB92795889400C0002C5BB900C010FF71
:1004A0008BB9132FF110122FCC0D00C000C0002CFF
:1004B0008BB900C000C0002C5BB900C017FF8BB91E
:1004C00032812227889400C000C0002C8BB93111E2
:1004D000340F00C0002C5BB900C016FF8BB908F4C4
:1004E0003FEFE60FF11D00C000C0002C8BB9E0FC0F
:1004F000230F00C0002C5BB900C015FF8BB92795F6
:100500008894E1FC230F00C000C0002C8BB9279514
:10051000889400C0002C5BB900C014FF8BB9E2FCCA
:10052000230F2795889400C000C0002C8BB9E3FCF2
:10053000230F00C0002C5BB900C013FF8BB92795B7
:100540008894E4FC230F00C000C0002C8BB92795D1
:10055000889400C0002C5BB900C012FF8BB9E5FC89
:10056000230F2795889400C000C0002C8BB9E6FCAF
:10057000230F00C0002C5BB900C011FF8BB9279579
:100580008894E7FC230F00C000C0002C8BB927958E
:10059000889400C0002C5BB900C010FF8BB9132FEA
:1005A000E110122F419500C000C0002C8BB94A0DFC
:1005B00000C000C05BB900C017FF8BB93181222792
:1005C000889400C000C0002C8BB93111390F00C0D5
:1005D000002C5BB900C016FF8BB908F43FEF919572
:1005E000889400C000C0002C8BB970FD230F00C0A0
:1005F000002C5BB900C015FF8BB92795889471FD5D
:10060000230F00C000C0002C8BB92795889400C030
:10061000002C5BB900C014FF8BB972FD230F279526
:10062000889400C000C0002C8BB973FD230F00C05C
:10063000002C5BB900C013FF8BB92795889474FD1B
:10064000230F00C000C0002C8BB92795889400C0F0
:10065000002C5BB900C012FF8BB975FD230F2795E5
:10066000889400C000C0002C8BB976FD230F00C019
:10067000002C5BB900C011FF8BB92795889477FDDA
:10068000230F00C000C0002C8BB92795889400C0B0
:10069000002C5BB900C010FF8BB9132F7111122F02
:1006A0009D0D00C000C0002C8BB9119709F086CEBB
:1006B00020EE31E0D2010E94F412DC01CB01F4E023
:1006C000B695A79597958795FA95D1F720E030E0F4
:1006D000A9016AE9469E412D569E400D511D1124E7
:1006E000840F951FA11DB11D893E43E09407A1050C
:1006F000B10588F1885E9340A109B10942E0B69541
:10070000A795979587954A95D1F747E0849F212D26
:10071000949F200D311D11246091310470E0860FEB
:10072000971F820F931F40913204509133046091C0
:10073000340470913504292F3327420F531F611D54
:10074000711D4093320450933304609334047093CA
:1007500035048093310478940E94D10BF301708B9F
:100760006787DF91CF911F910F91FF90EF90DF90FE
:10077000CF90AF908F907F906F905F904F90089543
:100780000F931F93CF93DF93CDB7DEB762970FB66A
:10079000F894DEBF0FBECDBF8C01F901DC011C96C1
:1007A0008C917A8369835C834B835E834D839081D4
:1007B0009D8791819E8792819F87813029F4CE0108
:1007C00001960E94860C06C01C861B861A86198616
:1007D00018861F8283E0888B1A8A198AD801ED91C6
:1007E000FC910484F585E02DBE016F5F7F4FC80149
:1007F000099562960FB6F894DEBF0FBECDBFDF91AC
:10080000CF911F910F9108950F931F93CF93DF9373
:10081000CDB7DEB762970FB6F894DEBF0FBECDBF7F
:100820008C01F901DC011C968C917A8369835C83CD
:100830004B835E834D8390819D8791819E879281BA
:100840009F87813029F4CE0101960E94860C06C054
:100850001C861B861A86198618861F82188A1A8A91
:10086000198AD801ED91FC910484F585E02DBE0133
:100870006F5F7F4FC801099562960FB6F894DEBF8F
:100880000FBECDBFDF91CF911F910F910895FC0155
:1008900084E091E091838083138212828FEF8683BC
:1008A0008783808781878287838781E08487168614
:1008B0001586158214828091360290913702892B19
:1008C00021F4F0933702E0933602A0912702B09111
:1008D0002802109721F01596FC93EE931497F0934D
:1008E0002802E093270284E191E0918380830895B8
:1008F0001F920F920FB60F9211242F933F934F9395
:100900005F936F937F938F939F93AF93BF93EF9377
:10091000FF938091B900887F803609F49CC068F508
:10092000883209F45BC090F4803109F454C038F483
:10093000882309F4F6C0883009F44DC0F6C0883128
:1009400009F44CC0803209F45DC0EFC0803409F472
:1009500068C048F4803309F455C0883309F0E5C015
:1009600080930302D8C0803509F44FC0883509F45C
:100970005DC0883409F0D9C0D6C0883909F4C7C031
:10098000A8F4883709F467C038F4883609F463C0DE
:10099000803709F460C0C9C0883809F4B8C080390C
:1009A00009F45FC0803809F0C0C05BC0803B09F427
:1009B00086C038F4803A09F466C0883A09F47FC0EA
:1009C000B4C0803C09F4A7C0883C09F4A4C0883BAB
:1009D00009F48AC0AAC08091260210C09091250215
:1009E00080912402981770F5E091250281E08E0F26
:1009F00080932502F0E0EC5FFD4F80818093BB0087
:100A000085EC86C0809303028EC0E091250281E0D0
:100A10008E0F809325028091BB00F0E0EC5FFD4FCC
:100A2000808390912502809124026EC0E09125027E
:100A300081E08E0F809325028091BB00F0E0EC5F97
:100A4000FD4F808380912A0281116DC081E08093E7
:100A5000290284EA61C083E080932B021092020293
:100A6000CFCF80910202803208F051C0E0910202A3
:100A700081E08E0F809302028091BB00F0E0EE5186
:100A8000FE4F8083BDCF85EC8093BC0010922B027B
:100A900080910202803230F4E0910202F0E0EE51E7
:100AA000FE4F10826091020270E0E0913002F091FE
:100AB000310282EE91E009951092020236C084E084
:100AC00080932B021092E1011092E001E09132023A
:100AD000F091330209958091E001811105C081E018
:100AE0008093E0011092C001E091E10181E08E0F5E
:100AF0008093E101F0E0E054FE4F80818093BB00E1
:100B00009091E1018091E001981708F479CF85E890
:100B10008093BC000AC085EC8093BC0010922B022D
:100B200004C0109203020E94C200FF91EF91BF9196
:100B3000AF919F918F917F916F915F914F913F9175
:100B40002F910F900FBE0F901F90189580E991E0A4
:100B50000895559A08954F925F926F927F928F9267
:100B6000AF92CF92DF92EF92FF920F931F93CF93AA
:100B7000DF933C01EB010F960E94D30CF894E881BF
:100B8000F9815BB150628BB18F7D8BB9DA849F8123
:100B90002D2D291B922F2F836F854A805B807D85A9
:100BA000FC84EE847F5FF394E3943E814885C9849E
:100BB000AB841181D20120E0C32F022F322F31816B
:100BC000112788943111390F08F43FEF91958894DB
:100BD00070FD130F1795889471FD130F1795889466
:100BE00072FD130F1795889473FD130F1795889452
:100BF00074FD130F1795889475FD130F179588943E
:100C000076FD130F1795889477FD130F1795889429
:100C1000232F7111212F9D0D122F002C5BB900C0C5
:100C200017FF8BB930812227889400C000C0002CA8
:100C30008BB931113C0F00C0002C5BB900C016FF0E
:100C40008BB908F43FEFC195889400C000C0002C18
:100C50008BB9F0FC230F00C0002C5BB900C015FF5E
:100C60008BB927958894F1FC230F00C000C0002C9D
:100C70008BB92795889400C0002C5BB900C014FF85
:100C80008BB9F2FC230F2795889400C000C0002C7C
:100C90008BB9F3FC230F00C0002C5BB900C013FF1D
:100CA0008BB927958894F4FC230F00C000C0002C5A
:100CB0008BB92795889400C0002C5BB900C012FF47
:100CC0008BB9F5FC230F2795889400C000C0002C39
:100CD0008BB9F6FC230F00C0002C5BB900C011FFDC
:100CE0008BB927958894F7FC230F00C000C0002C17
:100CF0008BB92795889400C0002C5BB900C010FF09
:100D00008BB9132FF110122FCC0D00C000C0002C96
:100D10008BB900C000C0002C5BB900C017FF8BB9B5
:100D200032812227889400C000C0002C8BB9311179
:100D3000340F00C0002C5BB900C016FF8BB908F45B
:100D40003FEFE60FF11D00C000C0002C8BB9E0FCA6
:100D5000230F00C0002C5BB900C015FF8BB927958D
:100D60008894E1FC230F00C000C0002C8BB92795AC
:100D7000889400C0002C5BB900C014FF8BB9E2FC62
:100D8000230F2795889400C000C0002C8BB9E3FC8A
:100D9000230F00C0002C5BB900C013FF8BB927954F
:100DA0008894E4FC230F00C000C0002C8BB9279569
:100DB000889400C0002C5BB900C012FF8BB9E5FC21
:100DC000230F2795889400C000C0002C8BB9E6FC47
:100DD000230F00C0002C5BB900C011FF8BB9279511
:100DE0008894E7FC230F00C000C0002C8BB9279526
:100DF000889400C0002C5BB900C010FF8BB9132F82
:100E0000E110122F419500C000C0002C8BB94A0D93
:100E100000C000C05BB900C017FF8BB93181222729
:100E2000889400C000C0002C8BB93111390F00C06C
:100E3000002C5BB900C016FF8BB908F43FEF919509
:100E4000889400C000C0002C8BB970FD230F00C037
:100E5000002C5BB900C015FF8BB92795889471FDF4
:100E6000230F00C000C0002C8BB92795889400C0C8
:100E7000002C5BB900C014FF8BB972FD230F2795BE
:100E8000889400C000C0002C8BB973FD230F00C0F4
:100E9000002C5BB900C013FF8BB92795889474FDB3
:100EA000230F00C000C0002C8BB92795889400C088
:100EB000002C5BB900C012FF8BB975FD230F27957D
:100EC000889400C000C0002C8BB976FD230F00C0B1
:100ED000002C5BB900C011FF8BB92795889477FD72
:100EE000230F00C000C0002C8BB92795889400C048
:100EF000002C5BB900C010FF8BB9132F7111122F9A
:100F00009D0D00C000C0002C8BB9119709F086CE52
:100F100020EE31E0D2010E94F412DC01CB01F4E0BA
:100F2000B695A79597958795FA95D1F720E030E08B
:100F3000A9016AE9469E412D569E400D511D11247E
:100F4000840F951FA11DB11D893E43E09407A105A3
:100F5000B10588F1885E9340A109B10942E0B695D8
:100F6000A795979587954A95D1F747E0849F212DBE
:100F7000949F200D311D11246091310470E0860F83
:100F8000971F820F931F4091320450913304609158
:100F9000340470913504292F3327420F531F611DEC
:100FA000711D409332045093330460933404709362
:100FB00035048093310478940E94D10BF301708B37
:100FC0006787DF91CF911F910F91FF90EF90DF9096
:100FD000CF90AF908F907F906F905F904F900895DB
:100FE00080E991E00895569A08954F925F926F922A
:100FF0007F928F92AF92CF92DF92EF92FF920F93F8
:101000001F93CF93DF933C01EB010F960E94D30C0B
:10101000F894E881F9815BB150648BB18F7B8BB917
:10102000DA849F812D2D291B922F2F836F854A8073
:101030005B807D85FC84EE847F5FF394E3943E8146
:101040004885C984AB841181D20120E0C32F022FCF
:10105000322F3181112788943111390F08F43FEF75
:101060009195889470FD130F1795889471FD130F57
:101070001795889472FD130F1795889473FD130FBD
:101080001795889474FD130F1795889475FD130FA9
:101090001795889476FD130F1795889477FD130F95
:1010A00017958894232F7111212F9D0D122F002C3D
:1010B0005BB900C017FF8BB930812227889400C02C
:1010C00000C0002C8BB931113C0F00C0002C5BB963
:1010D00000C016FF8BB908F43FEFC195889400C09B
:1010E00000C0002C8BB9F0FC230F00C0002C5BB9B2
:1010F00000C015FF8BB927958894F1FC230F00C021
:1011000000C0002C8BB92795889400C0002C5BB9D7
:1011100000C014FF8BB9F2FC230F2795889400C000
:1011200000C0002C8BB9F3FC230F00C0002C5BB96E
:1011300000C013FF8BB927958894F4FC230F00C0DF
:1011400000C0002C8BB92795889400C0002C5BB997
:1011500000C012FF8BB9F5FC230F2795889400C0BF
:1011600000C0002C8BB9F6FC230F00C0002C5BB92B
:1011700000C011FF8BB927958894F7FC230F00C09E
:1011800000C0002C8BB92795889400C0002C5BB957
:1011900000C010FF8BB9132FF110122FCC0D00C01F
:1011A00000C0002C8BB900C000C0002C5BB900C08F
:1011B00017FF8BB932812227889400C000C0002C11
:1011C0008BB93111340F00C0002C5BB900C016FF81
:1011D0008BB908F43FEFE60FF11D00C000C0002CF2
:1011E0008BB9E0FC230F00C0002C5BB900C015FFD9
:1011F0008BB927958894E1FC230F00C000C0002C18
:101200008BB92795889400C0002C5BB900C014FFEF
:101210008BB9E2FC230F2795889400C000C0002CF6
:101220008BB9E3FC230F00C0002C5BB900C013FF97
:101230008BB927958894E4FC230F00C000C0002CD4
:101240008BB92795889400C0002C5BB900C012FFB1
:101250008BB9E5FC230F2795889400C000C0002CB3
:101260008BB9E6FC230F00C0002C5BB900C011FF56
:101270008BB927958894E7FC230F00C000C0002C91
:101280008BB92795889400C0002C5BB900C010FF73
:101290008BB9132FE110122F419500C000C0002C14
:1012A0008BB94A0D00C000C05BB900C017FF8BB9F5
:1012B00031812227889400C000C0002C8BB93111E5
:1012C000390F00C0002C5BB900C016FF8BB908F4C1
:1012D0003FEF9195889400C000C0002C8BB970FD41
:1012E000230F00C0002C5BB900C015FF8BB92795F8
:1012F000889471FD230F00C000C0002C8BB9279586
:10130000889400C0002C5BB900C014FF8BB972FD3B
:10131000230F2795889400C000C0002C8BB973FD63
:10132000230F00C0002C5BB900C013FF8BB92795B9
:10133000889474FD230F00C000C0002C8BB9279542
:10134000889400C0002C5BB900C012FF8BB975FDFA
:10135000230F2795889400C000C0002C8BB976FD20
:10136000230F00C0002C5BB900C011FF8BB927957B
:10137000889477FD230F00C000C0002C8BB92795FF
:10138000889400C0002C5BB900C010FF8BB9132FEC
:101390007111122F9D0D00C000C0002C8BB9119748
:1013A00009F086CE20EE31E0D2010E94F412DC0179
:1013B000CB01F4E0B695A79597958795FA95D1F767
:1013C00020E030E0A9016AE9469E412D569E400D7D
:1013D000511D1124840F951FA11DB11D893E43E0AD
:1013E0009407A105B10588F1885E9340A109B10970
:1013F00042E0B695A795979587954A95D1F747E02E
:10140000849F212D949F200D311D11246091310462
:1014100070E0860F971F820F931F40913204509106
:1014200033046091340470913504292F3327420F1F
:10143000531F611D711D4093320450933304609318
:101440003404709335048093310478940E94D10B56
:10145000F301708B6787DF91CF911F910F91FF9000
:10146000EF90DF90CF90AF908F907F906F905F90D4
:101470004F900895FC01918D828D981761F0828DB7
:10148000DF01A80FB11D5D968C91928D9F5F9F73B8
:10149000928F90E008958FEF9FEF0895FC01918D5A
:1014A000828D981731F0828DE80FF11D858D90E0C7
:1014B00008958FEF9FEF0895FC01918D228D892F64
:1014C00090E0805C9F4F821B91098F73992708954C
:1014D0008DE394E00E945C0A21E0892B09F420E06E
:1014E000822F0895FC01848DDF01A80FB11DA35A3E
:1014F000BF4F2C91848D90E001968F739927848F34
:10150000A689B7892C93A089B1898C9180648C932A
:10151000938D848D981306C00288F389E02D808115
:101520008F7D80830895EF92FF920F931F93CF9347
:10153000DF93EC0181E0888F9B8D8C8D981305C023
:10154000E889F989808185FD24C0F62E0B8D10E095
:101550000F5F1F4F0F731127E02E8C8DE8120CC008
:101560000FB607FCFACFE889F989808185FFF5CFAE
:10157000CE010E94720AF1CF8B8DFE01E80FF11DA2
:10158000E35AFF4FF0820B8FEA89FB8980818062EA
:1015900007C0EE89FF896083E889F98980818064CA
:1015A000808381E090E0DF91CF911F910F91FF90B8
:1015B000EF900895CF93DF93EC01888D8823C9F0D5
:1015C000EA89FB89808185FD05C0A889B9898C914C
:1015D00086FD0FC00FB607FCF5CF808185FFF2CFE7
:1015E000A889B9898C9185FFEDCFCE010E94720A3E
:1015F000E7CFDF91CF91089580E090E0892B29F02B
:101600000E94680A81110C94000008950E940F1333
:101610006F927F928F929F92AF92BF92CF92DF9202
:10162000EF92FF920F931F93CF93DF9307E010E0A9
:10163000C3E0D0E086E0E82EF12C95E0C92ED12C55
:1016400024E0A22EB12C32E0832E912C66246394E8
:10165000712C90912E0280912F029817D9F18FE270
:1016600095E00E943A0180933704E82FF0E0E830DB
:10167000F10578F7E45CFF4F0C94EE1210923B02F8
:1016800010923A0222C070923B0260923A021DC050
:1016900090923B0280923A0218C0D0933B02C093D2
:1016A0003A0213C0B0923B02A0923A020EC0D0920E
:1016B0003B02C0923A0209C0F0923B02E0923A0229
:1016C00004C010933B0200933A02D0933902C093B6
:1016D0003802BFCFDF91CF911F910F91FF90EF9014
:1016E000DF90CF90BF90AF909F908F907F906F9042
:1016F00008951F920F920FB60F9211242F933F93CC
:101700004F935F936F937F938F939F93AF93BF9309
:10171000EF93FF938DE394E00E94720AFF91EF91A3
:10172000BF91AF919F918F917F916F915F914F91F9
:101730003F912F910F900FBE0F901F9018951F9201
:101740000F920FB60F9211242F938F939F93EF93C5
:10175000FF93E0914D04F0914E048081E091530499
:10176000F091540482FD12C09081809156048F5FE5
:101770008F7320915704821751F0E0915604F0E0E6
:10178000E35CFB4F958F8093560401C08081FF91ED
:10179000EF919F918F912F910F900FBE0F901F90FF
:1017A00018953FB7F8948091390490913A04A0912C
:1017B0003B04B0913C0426B5A89B05C02F3F19F00F
:1017C0000196A11DB11D3FBFBA2FA92F982F8827C1
:1017D000820F911DA11DB11DBC01CD0142E0660F1C
:1017E000771F881F991F4A95D1F708958F929F926E
:1017F000AF92BF92CF92DF92EF92FF926B017C018A
:101800000E94D10B4B015C01C114D104E104F1042D
:10181000F1F00E94D10BDC01CB0188199909AA09CA
:10182000BB09883E9340A105B10570F321E0C21ABF
:10183000D108E108F10888EE880E83E0981EA11C0B
:10184000B11CC114D104E104F10419F7DDCFFF90FC
:10185000EF90DF90CF90BF90AF909F908F900895C2
:101860002FB7F8946091320470913304809134045E
:10187000909135042FBF08951F920F920FB60F92CB
:1018800011242F933F938F939F93AF93BF93809196
:10189000320490913304A0913404B0913504309116
:1018A000380423E0230F2D3720F40196A11DB11D2C
:1018B00005C026E8230F0296A11DB11D2093380410
:1018C0008093320490933304A0933404B09335048E
:1018D0008091390490913A04A0913B04B0913C046A
:1018E0000196A11DB11D8093390490933A04A093F1
:1018F0003B04B0933C04BF91AF919F918F913F9176
:101900002F910F900FBE0F901F901895EF92FF929E
:101910000F931F93CF93DF93EC01909136049F5F59
:10192000292F27702093360490FF02C090E801C051
:1019300090E021FD9064247009F0906220E1290F6D
:10194000FE013C967E018FE0E80EF11C00E011E004
:101950006191662331F070E0C8010E94BB126F5F95
:1019600001C060E0DF0114976C93322F369F030EA5
:1019700030E0311D1124CF010797311103C0EC0174
:10198000188203C03150EC013883662311F0615096
:101990006C93EE15FF05E1F6DF91CF911F910F914A
:1019A000FF90EF900895CF93DF93EC010E94D10B4D
:1019B00028813981621B730B6A307105B8F3DF919E
:1019C000CF910895CF92DF92EF92FF920F931F93E2
:1019D000CF93DF936C017A018B01C0E0D0E0CE158C
:1019E000DF0589F0D8016D918D01D601ED91FC9153
:1019F0000190F081E02DC6010995892B11F47E013B
:101A000002C02196ECCFC701DF91CF911F910F91BA
:101A1000FF90EF90DF90CF900895EF92FF920F9399
:101A20001F93CF93DF93EC017B018A01E881F98159
:101A30000480F581E02D0995FB82EA821E870D87DF
:101A4000E881F9810284F385E02DCE0109950097A4
:101A500029F19C0140E050E060E472E48FE090E006
:101A60000E94CF12722F632F009125051091260539
:101A70002091270530912805872F962FDA018017AE
:101A80009107A207B30710F4D901C8018093250577
:101A900090932605A0932705B0932805CE01DF91EA
:101AA000CF911F910F91FF90EF90089590E0FC016E
:101AB000E654FF4F2491FC01EA55FF4F3491FC019D
:101AC000EE56FF4FE491EE23B1F1222339F123309A
:101AD00091F038F42130A9F0223001F584B58F7DE2
:101AE00012C0273091F02830A1F02430B9F4809151
:101AF00080008F7D03C0809180008F77809380006D
:101B00000DC084B58F7784BD09C08091B0008F77F8
:101B100003C08091B0008F7D8093B000F0E0EE0FA5
:101B2000FF1FE857FF4FA591B4918FB7F894EC9140
:101B30003E2B3C938FBF08956115710579F0FB0131
:101B400001900020E9F73197AF01461B570BDC01EC
:101B5000ED91FC910280F381E02D099480E090E00A
:101B600008954F925F926F927F92EF92FF920F9340
:101B70001F93CF93DF93CDB7DEB7A1970FB6F8943D
:101B8000DEBF0FBECDBF7C01FA01CB0119A222300E
:101B900008F42AE08E010F5D1F4F422E512C612C5C
:101BA000712CBF01A30192010E942413F901CA0103
:101BB000015011096A3014F4605D01C0695CD801FC
:101BC0006C93232B242B252B61F7B801C7010E94AE
:101BD0009C0DA1960FB6F894DEBF0FBECDBFDF916E
:101BE000CF911F910F91FF90EF907F906F905F903A
:101BF0004F900895CF93DF9300D000D01F92CDB7C0
:101C0000DEB7789484B5826084BD84B5816084BD7C
:101C100085B5826085BD85B5816085BD80916E008A
:101C2000816080936E0010928100809181008260BB
:101C300080938100809181008160809381008091F8
:101C400080008160809380008091B10084608093E7
:101C5000B1008091B00081608093B00080917A00E3
:101C6000846080937A0080917A00826080937A0009
:101C700080917A00816080937A0080917A008068F8
:101C800080937A001092C10010921E0510921F05D9
:101C900010922005109221051092DC041092DD04B0
:101CA0001092DE041092DF0460ED77E080E090E0B7
:101CB0000E94F60B8DE394E090931D0580931C0524
:101CC000E0914D04F0914E0482E08083E09149045C
:101CD000F0914A041082E0914B04F0914C0480E1B1
:101CE000808310925504E0915104F091520486E0F3
:101CF0008083E0914F04F091500480818061808363
:101D0000E0914F04F0915004808188608083E091DD
:101D10004F04F0915004808180688083E0914F04EB
:101D2000F091500480818F7D80830E94300C6093FD
:101D3000DC047093DD048093DE049093DF0468E795
:101D400071E080911C0590911D050E949C0D6AE038
:101D500070E080E090E00E94F60B11E01093F00438
:101D600084E88093BA0084EF90E0909333028093EC
:101D7000320280E091E09093310280933002109221
:101D80002F0210922E0210922D0210922C0210920D
:101D90002B0210932A021092290282E10E94560D12
:101DA00083E10E94560D8091B9008E7F8093B90027
:101DB0008091B9008D7F8093B90088E48093B8004A
:101DC00085E48093BC0088E09BE09093350280938B
:101DD000340280914D02811110C08CE392E00E9488
:101DE000470410924C0210924B0286E291E09093CD
:101DF0003D0280933C0210934D0246E250E067EBB7
:101E000073E08CE392E00E940D0D809166028111D7
:101E100011C085E592E00E9447041092650210927D
:101E2000640288E391E0909356028093550281E02A
:101E30008093660244E450E06BEE72E085E592E048
:101E40000E940D0D80917F02811111C08EE692E0FB
:101E50000E94470410927E0210927D028AE491E073
:101E600090936F0280936E0281E080937F024EE137
:101E700050E067E872E08EE692E00E940D0D1FEFE1
:101E800000E885EAC82E0E94300C672B682B692B6E
:101E900041F40E94300C623071058105910508F40F
:101EA0000FC10E94300C60932D0470932E04809318
:101EB0002F04909330048090290490902A04A090DD
:101EC0002B04B0902C04681579058A059B0540F415
:101ED0006093290470932A0480932B0490932C041C
:101EE0008090290490902A04A0902B04B0902C0498
:101EF0009B01AC01281939094A095B0949015A01BA
:101F00003AEF83169104A104B10408F4D9C0609398
:101F1000290470932A0480932B0490932C0484EF5B
:101F200091E0A0E0B0E08093E8049093E904A093EE
:101F3000EA04B093EB041092EC041092ED041092BA
:101F4000EE041092EF048091E0049091E104A091DE
:101F5000E204B091E3048093E4049093E504A09339
:101F6000E604B093E7040E94300C6093E0047093A1
:101F7000E1048093E2049093E3040E94300C6093A8
:101F8000DC047093DD048093DE049093DF040E94F0
:101F9000300C4B015C016AE871E080911C05909166
:101FA0001D050E949C0D2AE041E050E060E070E0D9
:101FB00080911C0590911D050E94B10D61E971E0B1
:101FC00080911C0590911D050E949C0D2AE0B50191
:101FD000A40180911C0590911D050E94B10D63E93B
:101FE00071E080911C0590911D050E949C0D8091CF
:101FF000E0049091E104A091E204B091E304B50102
:10200000A401481B590B6A0B7B0B2AE080911C052D
:1020100090911D050E94B10D63E971E080911C054E
:1020200090911D050E949C0D4091E0045091E104A7
:102030006091E2047091E3048091E4049091E504DE
:10204000A091E604B091E704481B590B6A0B7B0B87
:102050002AE080911C0590911D050E94B10D65E953
:1020600071E080911C0590911D050E949C0D0E94BD
:10207000300CAB01BC012AE080911C0590911D053C
:102080000E94B10DE0901C05F0901D0567E971E01C
:10209000C7010E949C0D67E871E0C7010E949C0D7A
:1020A00065E070E080E090E00E94F60B0E94300C4A
:1020B0006093E0047093E1048093E2049093E3045E
:1020C000E0913A02F0913B02E830F10508F0FAC0E5
:1020D000EC5CFF4F0C94EE1280E090E0FC01E954C0
:1020E000FC4F108211821282039682379105B1F75C
:1020F00080E090E0FC01E551FD4F108211821282D8
:1021000003968C3C9105B1F7DDC080913802909127
:102110003902039709F0D6C080E090E0FC01E95451
:10212000FC4F108311821282039682379105B1F71A
:1021300080E090E0FC01E551FD4F10831182128296
:1021400003968C3C9105B1F7BDC080913802909107
:102150003902039709F0B6C080E090E0FC01E95431
:10216000FC4F1083C1821282039682379105B1F72A
:1021700080E090E0FC01E551FD4F1083C1821282A6
:1021800003968C3C9105B1F79DC0809138029091E7
:102190003902039709F096C080E090E0FC01E95411
:1021A000FC4F108311831282039682379105B1F799
:1021B00080E090E0FC01E551FD4F10831183128215
:1021C00003968C3C9105B1F77DC0809138029091C7
:1021D0003902039709F076C080E090E0FC01E954F1
:1021E000FC4F108201831282039682379105B1F76A
:1021F00080E090E0FC01E551FD4F108201831282E6
:1022000003968C3C9105B1F75DC0809138029091A6
:102210003902039709F056C080E090E0FC01E954D0
:10222000FC4F108211821283039682379105B1F719
:1022300080E090E0FC01E551FD4F10821182128395
:1022400003968C3C9105B1F73DC080913802909186
:1022500039020397B9F580E090E0FC01E954FC4FA6
:10226000008311820283039682379105B1F780E0E3
:1022700090E0FC01E551FD4F00831182028303963B
:102280008C3C9105B1F71EC08091380290913902C3
:102290000397C1F480E090E0FC01E954FC4F108307
:1022A00011821282039682379105B1F780E090E0A7
:1022B000FC01E551FD4F10831182128203968C3C84
:1022C0009105B1F7D09022058091250590912605C2
:1022D000A0912705B0912805892B8A2B8B2BE9F03B
:1022E0000E94D10B8090E7029090E802A090E90252
:1022F000B090EA02DC01CB0188199909AA09BB094F
:102300008090250590902605A0902705B09028057F
:1023100088159905AA05BB05B8F20E94D10B6093F8
:10232000E7027093E8028093E9029093EA02E09159
:102330002D05F0912E05309759F0409129055091C7
:102340002A0560912B0570912C058D2D0995D82EAD
:10235000E0903602F09037024D2C512C612C712CFC
:10236000E114F10409F469C0D7011C968C901C9704
:1023700080912305909124058436910510F41C96D4
:102380001C92D701ED91FC91228133813D832C83F6
:1023900019821A821B82D11019C0D7011D964D9146
:1023A0005C911E9712966D917C9113979E012F5F01
:1023B0003F4FC701EC81FD810995D7011C968C9296
:1023C0001C971496ED90FC901597CACFF70139969B
:1023D0009E012F5F3F4F590117013CE0230E311C36
:1023E000DF0113979C902191992001F12223F1F0B4
:1023F000822F90E0A0E0B0E09C01AD012F5F3F4F45
:102400004F4F5F4FC301B2010E9414139B01AC01F7
:10241000892D90E0A0E0B0E0BC01CD016F5F7F4F5F
:102420008F4F9F4F0E941413D5018C93BFEFAB1AAF
:10243000BB0AE215F305A1F6B0CF8091E5029091B9
:10244000E6027C01EFEFEE1AFE0AF092E602E0925D
:10245000E50249979CF10E94300C2B013C0128EECB
:1024600033E0E29EB001E39E700DF29E700D1124E8
:10247000072E000C880B990B8090E1029090E202ED
:10248000A090E302B090E402A30192012819390957
:102490004A095B090E9424133093240520932305E5
:1024A0001092E6021092E5020E94300C6093E10265
:1024B0007093E2028093E3029093E4020E94FC0A8C
:1024C000E2CCEDE3F4E01382128288EE93E0A0E028
:1024D000B0E084839583A683B7832CE531E0318314
:1024E000208325EC30E03587248724EC30E03787E3
:1024F000268720EC30E0318B208B21EC30E0338BD1
:10250000228B22EC30E0358B248B26EC30E0378BAD
:10251000268B118E128E138E148EEAEDF4E0168245
:1025200017821086118612861386148615861686E3
:102530001786108A118A128A138A148A158AE2E28F
:10254000F5E02FEF208312821182148613864FEF5D
:102550005FEFBA014783508761877287EFE2F5E04A
:102560001382128284839583A683B7838CE691E0DD
:1025700091838083089597FB072E16F4009407D06B
:1025800077FD09D00E94FB1207FC05D03EF4909520
:1025900081959F4F0895709561957F4F0895052E01
:1025A00097FB1EF400940E94E61257FD07D00E948C
:1025B000241307FC03D04EF40C94E612509540957A
:1025C000309521953F4F4F4F5F4F089590958095DF
:1025D000709561957F4F8F4F9F4F0895EE0FFF1FAE
:1025E0000590F491E02D09940E945113B7FF0895CE
:1025F000821B930B0895AA1BBB1B51E107C0AA1FA6
:10260000BB1FA617B70710F0A61BB70B881F991F93
:102610005A95A9F780959095BC01CD01089581E068
:1026200090E0F8940C946013DB018F939F930E94C9
:102630004613BF91AF91A29F800D911DA39F900D56
:10264000B29F900D11240895A1E21A2EAA1BBB1B64
:10265000FD010DC0AA1FBB1FEE1FFF1FA217B3076E
:10266000E407F50720F0A21BB30BE40BF50B661F84
:10267000771F881F991F1A9469F760957095809548
:1026800090959B01AC01BD01CF0108950E945113AB
:10269000A59F900DB49F900DA49F800D911D1124B6
:1026A0000895A29FB001B39FC001A39F700D811D2B
:1026B0001124911DB29F700D811D1124911D08954B
:0426C000F894FFCFBC
:1026C40000000000060B060B060B9700BB00BF00C2
:1026D400000000000404C003060B9700BB00BF0009
:1026E400060B000000000404C003A9059700BB000A
:1026F400A605AB05000000000404C003F30797001F
:10270400BB00F007F507000000000404C0039500B7
:102714009700BB0092007B0100000000930AE20CCA
:102724005C0A3A0A4E0ADA0A000000006A015601FD
:102734004E013A012B012A01564D4450565F317C1B
:10274400315F564D4450560D0A00564D4450455F76
:0E275400003A323A007C005F564D445045007A
:00000001FF
